{
  "contractName": "CoUpdate",
  "abi": [
    {
      "constant": true,
      "inputs": [],
      "name": "Tokenowner",
      "outputs": [
        {
          "name": "",
          "type": "address"
        }
      ],
      "payable": false,
      "stateMutability": "view",
      "type": "function"
    },
    {
      "constant": true,
      "inputs": [
        {
          "name": "",
          "type": "uint256"
        }
      ],
      "name": "shoes",
      "outputs": [
        {
          "name": "owner",
          "type": "address"
        },
        {
          "name": "name",
          "type": "string"
        },
        {
          "name": "image",
          "type": "string"
        },
        {
          "name": "sold",
          "type": "bool"
        }
      ],
      "payable": false,
      "stateMutability": "view",
      "type": "function"
    },
    {
      "inputs": [
        {
          "name": "_address",
          "type": "address"
        }
      ],
      "payable": false,
      "stateMutability": "nonpayable",
      "type": "constructor"
    },
    {
      "constant": true,
      "inputs": [],
      "name": "getNumberOfShoes",
      "outputs": [
        {
          "name": "",
          "type": "uint256"
        }
      ],
      "payable": false,
      "stateMutability": "view",
      "type": "function"
    },
    {
      "constant": false,
      "inputs": [
        {
          "name": "_name",
          "type": "string"
        },
        {
          "name": "_image",
          "type": "string"
        }
      ],
      "name": "buyShoe",
      "outputs": [
        {
          "name": "",
          "type": "uint256"
        }
      ],
      "payable": true,
      "stateMutability": "payable",
      "type": "function"
    },
    {
      "constant": true,
      "inputs": [],
      "name": "checkPurchases",
      "outputs": [
        {
          "name": "",
          "type": "bool[]"
        }
      ],
      "payable": false,
      "stateMutability": "view",
      "type": "function"
    }
  ],
  "bytecode": "0x60806040526000805560646001553480156200001a57600080fd5b50604051602080620010d5833981018060405260208110156200003c57600080fd5b81019080805190602001909291905050506000600190505b600154811115156200019e5760026080604051908101604052803373ffffffffffffffffffffffffffffffffffffffff1681526020016020604051908101604052806000815250815260200160206040519081016040528060008152508152602001600015158152509080600181540180825580915050906001820390600052602060002090600402016000909192909190915060008201518160000160006101000a81548173ffffffffffffffffffffffffffffffffffffffff021916908373ffffffffffffffffffffffffffffffffffffffff16021790555060208201518160010190805190602001906200014d929190620001e7565b5060408201518160020190805190602001906200016c929190620001e7565b5060608201518160030160006101000a81548160ff021916908315150217905550505050808060010191505062000054565b5080600360006101000a81548173ffffffffffffffffffffffffffffffffffffffff021916908373ffffffffffffffffffffffffffffffffffffffff1602179055505062000296565b828054600181600116156101000203166002900490600052602060002090601f016020900481019282601f106200022a57805160ff19168380011785556200025b565b828001600101855582156200025b579182015b828111156200025a5782518255916020019190600101906200023d565b5b5090506200026a91906200026e565b5090565b6200029391905b808211156200028f57600081600090555060010162000275565b5090565b90565b610e2f80620002a66000396000f3fe60806040526004361061006d576000357c0100000000000000000000000000000000000000000000000000000000900463ffffffff1680634be2133f14610072578063540a2f4f146100c9578063558a2b8b1461022f578063607473cf1461029b578063d616af5b146103f9575b600080fd5b34801561007e57600080fd5b50610087610424565b604051808273ffffffffffffffffffffffffffffffffffffffff1673ffffffffffffffffffffffffffffffffffffffff16815260200191505060405180910390f35b610219600480360360408110156100df57600080fd5b81019080803590602001906401000000008111156100fc57600080fd5b82018360208201111561010e57600080fd5b8035906020019184600183028401116401000000008311171561013057600080fd5b91908080601f016020809104026020016040519081016040528093929190818152602001838380828437600081840152601f19601f8201169050808301925050505050505091929192908035906020019064010000000081111561019357600080fd5b8201836020820111156101a557600080fd5b803590602001918460018302840111640100000000831117156101c757600080fd5b91908080601f016020809104026020016040519081016040528093929190818152602001838380828437600081840152601f19601f82011690508083019250505050505050919291929050505061044a565b6040518082815260200191505060405180910390f35b34801561023b57600080fd5b50610244610af1565b6040518080602001828103825283818151815260200191508051906020019060200280838360005b8381101561028757808201518184015260208101905061026c565b505050509050019250505060405180910390f35b3480156102a757600080fd5b506102d4600480360360208110156102be57600080fd5b8101908080359060200190929190505050610bb5565b604051808573ffffffffffffffffffffffffffffffffffffffff1673ffffffffffffffffffffffffffffffffffffffff168152602001806020018060200184151515158152602001838103835286818151815260200191508051906020019080838360005b83811015610354578082015181840152602081019050610339565b50505050905090810190601f1680156103815780820380516001836020036101000a031916815260200191505b50838103825285818151815260200191508051906020019080838360005b838110156103ba57808201518184015260208101905061039f565b50505050905090810190601f1680156103e75780820380516001836020036101000a031916815260200191505b50965050505050505060405180910390f35b34801561040557600080fd5b5061040e610d51565b6040518082815260200191505060405180910390f35b600460009054906101000a900473ffffffffffffffffffffffffffffffffffffffff1681565b600080600360009054906101000a900473ffffffffffffffffffffffffffffffffffffffff1673ffffffffffffffffffffffffffffffffffffffff166370a08231336040518263ffffffff167c0100000000000000000000000000000000000000000000000000000000028152600401808273ffffffffffffffffffffffffffffffffffffffff1673ffffffffffffffffffffffffffffffffffffffff16815260200191505060206040518083038186803b15801561050857600080fd5b505afa15801561051c573d6000803e3d6000fd5b505050506040513d602081101561053257600080fd5b81019080805190602001909291905050501115156105b8576040517f08c379a00000000000000000000000000000000000000000000000000000000081526004018080602001828103825260178152602001807f5072696365206973206e6f742073756666696369656e7400000000000000000081525060200191505060405180910390fd5b60015460005411151515610634576040517f08c379a000000000000000000000000000000000000000000000000000000000815260040180806020018281038252601e8152602001807f536f7272792120416c6c2073686f65732061726520736f6c64206f757421000081525060200191505060405180910390fd5b600360009054906101000a900473ffffffffffffffffffffffffffffffffffffffff1673ffffffffffffffffffffffffffffffffffffffff16638da5cb5b6040518163ffffffff167c010000000000000000000000000000000000000000000000000000000002815260040160206040518083038186803b1580156106b857600080fd5b505afa1580156106cc573d6000803e3d6000fd5b505050506040513d60208110156106e257600080fd5b8101908080519060200190929190505050600460006101000a81548173ffffffffffffffffffffffffffffffffffffffff021916908373ffffffffffffffffffffffffffffffffffffffff160217905550600360009054906101000a900473ffffffffffffffffffffffffffffffffffffffff1673ffffffffffffffffffffffffffffffffffffffff166323b872dd33600460009054906101000a900473ffffffffffffffffffffffffffffffffffffffff1660016040518463ffffffff167c0100000000000000000000000000000000000000000000000000000000028152600401808473ffffffffffffffffffffffffffffffffffffffff1673ffffffffffffffffffffffffffffffffffffffff1681526020018373ffffffffffffffffffffffffffffffffffffffff1673ffffffffffffffffffffffffffffffffffffffff1681526020018281526020019350505050602060405180830381600087803b15801561084f57600080fd5b505af1158015610863573d6000803e3d6000fd5b505050506040513d602081101561087957600080fd5b810190808051906020019092919050505015156108fe576040517f08c379a00000000000000000000000000000000000000000000000000000000081526004018080602001828103825260208152602001807f54686572652077617320612070726f626c656d2077697468205472616e66657281525060200191505060405180910390fd5b600060016000540190506000151560028281548110151561091b57fe5b906000526020600020906004020160030160009054906101000a900460ff1615151415156109d7576040517f08c379a00000000000000000000000000000000000000000000000000000000081526004018080602001828103825260248152602001807f546861742073686f652068617320616c7261656479206265656e20707572636881526020017f617365640000000000000000000000000000000000000000000000000000000081525060400191505060405180910390fd5b336002828154811015156109e757fe5b906000526020600020906004020160000160006101000a81548173ffffffffffffffffffffffffffffffffffffffff021916908373ffffffffffffffffffffffffffffffffffffffff16021790555083600282815481101515610a4657fe5b90600052602060002090600402016001019080519060200190610a6a929190610d5e565b5082600282815481101515610a7b57fe5b90600052602060002090600402016002019080519060200190610a9f929190610d5e565b506001600282815481101515610ab157fe5b906000526020600020906004020160030160006101000a81548160ff02191690831515021790555060016000540160008190555060005491505092915050565b60608060008090505b600280549050811015610bad573373ffffffffffffffffffffffffffffffffffffffff16600282815481101515610b2d57fe5b906000526020600020906004020160000160009054906101000a900473ffffffffffffffffffffffffffffffffffffffff1673ffffffffffffffffffffffffffffffffffffffff161415610ba05760018282815181101515610b8b57fe5b90602001906020020190151590811515815250505b8080600101915050610afa565b508091505090565b600281815481101515610bc457fe5b90600052602060002090600402016000915090508060000160009054906101000a900473ffffffffffffffffffffffffffffffffffffffff1690806001018054600181600116156101000203166002900480601f016020809104026020016040519081016040528092919081815260200182805460018160011615610100020316600290048015610c965780601f10610c6b57610100808354040283529160200191610c96565b820191906000526020600020905b815481529060010190602001808311610c7957829003601f168201915b505050505090806002018054600181600116156101000203166002900480601f016020809104026020016040519081016040528092919081815260200182805460018160011615610100020316600290048015610d345780601f10610d0957610100808354040283529160200191610d34565b820191906000526020600020905b815481529060010190602001808311610d1757829003601f168201915b5050505050908060030160009054906101000a900460ff16905084565b6000600280549050905090565b828054600181600116156101000203166002900490600052602060002090601f016020900481019282601f10610d9f57805160ff1916838001178555610dcd565b82800160010185558215610dcd579182015b82811115610dcc578251825591602001919060010190610db1565b5b509050610dda9190610dde565b5090565b610e0091905b80821115610dfc576000816000905550600101610de4565b5090565b9056fea165627a7a72305820bccf04012dd2e4e92cf263cc10d7879fa94716f4a4a7f004ba05e9d016d891ca0029",
  "source": "pragma solidity >=0.4.17 <0.6.0;\n\nimport \"./CoToken.sol\";\n\ncontract CoUpdate {\n\n       //define struct Shoe that represents a shoe\n    struct Shoe {\n        address payable owner;  //the address of owner of the shoe\n        string name;\n        string image;\n        bool sold;\n\n    }\n\n    uint256 ShoesSold = 0;   \n    uint256 supply = 100;\n    Shoe[] public shoes; //initialise array\n     CoToken token;\n     address public Tokenowner;\n\n      constructor(address _address) public {\n        //mint 100 shoes\n        for (uint i=1;i<=supply;i++) {\n        //add each shoe to array\n        shoes.push(Shoe(msg.sender,\"\",\"\",false)); \n    \n        }\n        token  = CoToken(_address);\n\n    }\n\n     //gets number of shoes in shoes array\n    function getNumberOfShoes() public view returns(uint) {\n        return shoes.length;\n    }\n     \n\n      // function  to buy a shoe gievn name and image\n    function buyShoe(string memory _name,string memory _image)public payable returns(uint) {\n       require(token.balanceOf(msg.sender) > 0, 'Price is not sufficient'); \n        require(ShoesSold <= supply,'Sorry! All shoes are sold out!'); //check that there is still pair of shoes left has not been sold\n\n\n         //assign CoToken owner\n         Tokenowner = token.owner();\n         //transfer ownership\n         require(token.transferFrom(msg.sender,Tokenowner,1),\"There was a problem with Tranfer\");\n        \n        uint256 soldShoe = ShoesSold+1; //sell shoe that\n         require(shoes[soldShoe].sold == false, \"That shoe has alraedy been purchased\");\n        shoes[soldShoe].owner = msg.sender;\n        shoes[soldShoe].name = _name;\n        shoes[soldShoe].image = _image;\n        shoes[soldShoe].sold = true;\n        ShoesSold = ShoesSold + 1 ;  //update shoes sold\n        return ShoesSold;\n    }\n    \n\n      //function to return an array of bools of an array of all the purchases that are true\n    function checkPurchases() external view returns (bool[] memory){\n        bool[] memory Buy;\n        for (uint256 i = 0; i < shoes.length; i++){\n            if (shoes[i].owner == msg.sender){\n                    Buy[i] = true;\n            }\n        }\n        return Buy;\n    }\n\n\n}",
  "sourcePath": "/Users/kalubachikonde/Documents/GitHub/Question-2.3---Bonus-Question/contracts/CoUpdate.sol",
  "compiler": {
    "name": "solc",
    "version": "0.5.0+commit.1d4f565a.Emscripten.clang"
  },
  "schemaVersion": "3.0.6",
  "updatedAt": "2019-08-05T06:33:05.484Z",
  "devdoc": {
    "methods": {}
  },
  "userdoc": {
    "methods": {}
  }
}